{
  "contractName": "BettingSystem",
  "abi": [
    {
      "inputs": [],
      "stateMutability": "nonpayable",
      "type": "constructor"
    },
    {
      "anonymous": false,
      "inputs": [
        {
          "indexed": false,
          "internalType": "uint256",
          "name": "eventId",
          "type": "uint256"
        },
        {
          "indexed": false,
          "internalType": "string",
          "name": "description",
          "type": "string"
        }
      ],
      "name": "BetCriada",
      "type": "event"
    },
    {
      "anonymous": false,
      "inputs": [
        {
          "indexed": false,
          "internalType": "uint256",
          "name": "eventId",
          "type": "uint256"
        },
        {
          "indexed": true,
          "internalType": "address",
          "name": "user",
          "type": "address"
        },
        {
          "indexed": false,
          "internalType": "uint256",
          "name": "amount",
          "type": "uint256"
        },
        {
          "indexed": false,
          "internalType": "uint256",
          "name": "outcome",
          "type": "uint256"
        }
      ],
      "name": "BetEfetuada",
      "type": "event"
    },
    {
      "anonymous": false,
      "inputs": [
        {
          "indexed": false,
          "internalType": "uint256",
          "name": "eventId",
          "type": "uint256"
        },
        {
          "indexed": false,
          "internalType": "uint256",
          "name": "result",
          "type": "uint256"
        }
      ],
      "name": "BetFinalizada",
      "type": "event"
    },
    {
      "inputs": [
        {
          "internalType": "uint256",
          "name": "",
          "type": "uint256"
        }
      ],
      "name": "events",
      "outputs": [
        {
          "internalType": "string",
          "name": "description",
          "type": "string"
        },
        {
          "internalType": "bool",
          "name": "active",
          "type": "bool"
        },
        {
          "internalType": "bool",
          "name": "finalized",
          "type": "bool"
        },
        {
          "internalType": "uint256",
          "name": "winningOutcomeIndex",
          "type": "uint256"
        }
      ],
      "stateMutability": "view",
      "type": "function",
      "constant": true
    },
    {
      "inputs": [],
      "name": "owner",
      "outputs": [
        {
          "internalType": "address",
          "name": "",
          "type": "address"
        }
      ],
      "stateMutability": "view",
      "type": "function",
      "constant": true
    },
    {
      "inputs": [
        {
          "internalType": "uint256",
          "name": "",
          "type": "uint256"
        },
        {
          "internalType": "uint256",
          "name": "",
          "type": "uint256"
        }
      ],
      "name": "participants",
      "outputs": [
        {
          "internalType": "address",
          "name": "",
          "type": "address"
        }
      ],
      "stateMutability": "view",
      "type": "function",
      "constant": true
    },
    {
      "inputs": [
        {
          "internalType": "string",
          "name": "_description",
          "type": "string"
        },
        {
          "internalType": "string[]",
          "name": "_outcomes",
          "type": "string[]"
        }
      ],
      "name": "createEvent",
      "outputs": [],
      "stateMutability": "nonpayable",
      "type": "function"
    },
    {
      "inputs": [
        {
          "internalType": "uint256",
          "name": "_eventId",
          "type": "uint256"
        },
        {
          "internalType": "uint256",
          "name": "_outcomeIndex",
          "type": "uint256"
        }
      ],
      "name": "placeBet",
      "outputs": [],
      "stateMutability": "payable",
      "type": "function",
      "payable": true
    },
    {
      "inputs": [
        {
          "internalType": "uint256",
          "name": "_eventId",
          "type": "uint256"
        },
        {
          "internalType": "uint256",
          "name": "_winningOutcomeIndex",
          "type": "uint256"
        }
      ],
      "name": "finalizeEvent",
      "outputs": [],
      "stateMutability": "nonpayable",
      "type": "function"
    },
    {
      "inputs": [
        {
          "internalType": "uint256",
          "name": "_eventId",
          "type": "uint256"
        }
      ],
      "name": "getEvent",
      "outputs": [
        {
          "internalType": "string",
          "name": "",
          "type": "string"
        },
        {
          "internalType": "string[]",
          "name": "",
          "type": "string[]"
        },
        {
          "internalType": "bool",
          "name": "",
          "type": "bool"
        },
        {
          "internalType": "bool",
          "name": "",
          "type": "bool"
        },
        {
          "internalType": "uint256",
          "name": "",
          "type": "uint256"
        }
      ],
      "stateMutability": "view",
      "type": "function",
      "constant": true
    }
  ],
  "bytecode": "0x608060405234801561001057600080fd5b5033600260006101000a81548173ffffffffffffffffffffffffffffffffffffffff021916908373ffffffffffffffffffffffffffffffffffffffff160217905550611b27806100616000396000f3fe6080604052600436106100705760003560e01c80636d1884e01161004e5780636d1884e0146100fa57806381fb1fb41461013b5780638da5cb5b14610178578063c28edd4e146101a357610070565b80630b791430146100755780634afe62b5146100b55780636a03942f146100d1575b600080fd5b34801561008157600080fd5b5061009c60048036038101906100979190610ed9565b6101cc565b6040516100ac9493929190610fc9565b60405180910390f35b6100cf60048036038101906100ca9190611015565b6102ae565b005b3480156100dd57600080fd5b506100f860048036038101906100f39190611270565b610564565b005b34801561010657600080fd5b50610121600480360381019061011c9190610ed9565b61068c565b6040516101329594939291906113f4565b60405180910390f35b34801561014757600080fd5b50610162600480360381019061015d9190611015565b6108a3565b60405161016f9190611496565b60405180910390f35b34801561018457600080fd5b5061018d6108f1565b60405161019a9190611496565b60405180910390f35b3480156101af57600080fd5b506101ca60048036038101906101c59190611015565b610917565b005b600081815481106101dc57600080fd5b90600052602060002090600702016000915090508060000180546101ff906114e0565b80601f016020809104026020016040519081016040528092919081815260200182805461022b906114e0565b80156102785780601f1061024d57610100808354040283529160200191610278565b820191906000526020600020905b81548152906001019060200180831161025b57829003601f168201915b5050505050908060020160009054906101000a900460ff16908060020160019054906101000a900460ff16908060030154905084565b60008054905082106102f5576040517f08c379a00000000000000000000000000000000000000000000000000000000081526004016102ec9061155d565b60405180910390fd5b600082815481106103095761030861157d565b5b906000526020600020906007020160020160009054906101000a900460ff16610367576040517f08c379a000000000000000000000000000000000000000000000000000000000815260040161035e906115f8565b60405180910390fd5b600034116103aa576040517f08c379a00000000000000000000000000000000000000000000000000000000081526004016103a19061168a565b60405180910390fd5b60008083815481106103bf576103be61157d565b5b906000526020600020906007020190503481600401600084815260200190815260200160002060008282546103f491906116d9565b92505081905550348160050160003373ffffffffffffffffffffffffffffffffffffffff1673ffffffffffffffffffffffffffffffffffffffff168152602001908152602001600020600082825461044c91906116d9565b92505081905550818160060160003373ffffffffffffffffffffffffffffffffffffffff1673ffffffffffffffffffffffffffffffffffffffff1681526020019081526020016000208190555060016000848152602001908152602001600020339080600181540180825580915050600190039060005260206000200160009091909190916101000a81548173ffffffffffffffffffffffffffffffffffffffff021916908373ffffffffffffffffffffffffffffffffffffffff1602179055503373ffffffffffffffffffffffffffffffffffffffff167fcb660df6a3f828e5658e94c916a50726ea3dd1c7fe98b73da245f9ac10f5f8158434856040516105579392919061172f565b60405180910390a2505050565b6002815110156105a9576040517f08c379a00000000000000000000000000000000000000000000000000000000081526004016105a0906117d8565b60405180910390fd5b6000806001816001815401808255809150500390600052602060002090600702019050828160000190805190602001906105e4929190610d28565b50818160010190805190602001906105fd929190610dae565b5060018160020160006101000a81548160ff02191690831515021790555060008160020160016101000a81548160ff0219169083151502179055506000808054905090507f62b9c9abbba9982c22e41c910aa408146fa8ed1b34dedfd4c504389f987f2f0a60018261066f91906117f8565b8560405161067e92919061182c565b60405180910390a150505050565b6060806000806000808054905086106106da576040517f08c379a00000000000000000000000000000000000000000000000000000000081526004016106d19061155d565b60405180910390fd5b60008087815481106106ef576106ee61157d565b5b9060005260206000209060070201905080600001816001018260020160009054906101000a900460ff168360020160019054906101000a900460ff16846003015484805461073c906114e0565b80601f0160208091040260200160405190810160405280929190818152602001828054610768906114e0565b80156107b55780601f1061078a576101008083540402835291602001916107b5565b820191906000526020600020905b81548152906001019060200180831161079857829003601f168201915b5050505050945083805480602002602001604051908101604052809291908181526020016000905b828210156108895783829060005260206000200180546107fc906114e0565b80601f0160208091040260200160405190810160405280929190818152602001828054610828906114e0565b80156108755780601f1061084a57610100808354040283529160200191610875565b820191906000526020600020905b81548152906001019060200180831161085857829003601f168201915b5050505050815260200190600101906107dd565b505050509350955095509550955095505091939590929450565b600160205281600052604060002081815481106108bf57600080fd5b906000526020600020016000915091509054906101000a900473ffffffffffffffffffffffffffffffffffffffff1681565b600260009054906101000a900473ffffffffffffffffffffffffffffffffffffffff1681565b600260009054906101000a900473ffffffffffffffffffffffffffffffffffffffff1673ffffffffffffffffffffffffffffffffffffffff163373ffffffffffffffffffffffffffffffffffffffff16146109a7576040517f08c379a000000000000000000000000000000000000000000000000000000000815260040161099e906118ce565b60405180910390fd5b60008054905082106109ee576040517f08c379a00000000000000000000000000000000000000000000000000000000081526004016109e59061155d565b60405180910390fd5b6000808381548110610a0357610a0261157d565b5b906000526020600020906007020190508060020160009054906101000a900460ff16610a64576040517f08c379a0000000000000000000000000000000000000000000000000000000008152600401610a5b9061193a565b60405180910390fd5b80600101805490508210610aad576040517f08c379a0000000000000000000000000000000000000000000000000000000008152600401610aa4906119a6565b60405180910390fd5b60008160020160006101000a81548160ff02191690831515021790555060018160020160016101000a81548160ff021916908315150217905550818160030181905550600060016000858152602001908152602001600020805480602002602001604051908101604052809291908181526020018280548015610b8557602002820191906000526020600020905b8160009054906101000a900473ffffffffffffffffffffffffffffffffffffffff1673ffffffffffffffffffffffffffffffffffffffff1681526020019060010190808311610b3b575b50505050509050600082600401600085815260200190815260200160002054905060005b8251811015610ce7576000838281518110610bc757610bc661157d565b5b60200260200101519050858560060160008373ffffffffffffffffffffffffffffffffffffffff1673ffffffffffffffffffffffffffffffffffffffff1681526020019081526020016000205403610cd357600085600401600088815260200190815260200160002054848760050160008573ffffffffffffffffffffffffffffffffffffffff1673ffffffffffffffffffffffffffffffffffffffff16815260200190815260200160002054610c7e91906119c6565b610c889190611a4f565b90508173ffffffffffffffffffffffffffffffffffffffff166108fc829081150290604051600060405180830381858888f19350505050158015610cd0573d6000803e3d6000fd5b50505b508080610cdf90611a80565b915050610ba9565b507fe7201fa79f9a96195df35493ab233340467efe914b6f25a402cb7f7cbf52caa68585604051610d19929190611ac8565b60405180910390a15050505050565b828054610d34906114e0565b90600052602060002090601f016020900481019282610d565760008555610d9d565b82601f10610d6f57805160ff1916838001178555610d9d565b82800160010185558215610d9d579182015b82811115610d9c578251825591602001919060010190610d81565b5b509050610daa9190610e0e565b5090565b828054828255906000526020600020908101928215610dfd579160200282015b82811115610dfc578251829080519060200190610dec929190610d28565b5091602001919060010190610dce565b5b509050610e0a9190610e2b565b5090565b5b80821115610e27576000816000905550600101610e0f565b5090565b5b80821115610e4b5760008181610e429190610e4f565b50600101610e2c565b5090565b508054610e5b906114e0565b6000825580601f10610e6d5750610e8c565b601f016020900490600052602060002090810190610e8b9190610e0e565b5b50565b6000604051905090565b600080fd5b600080fd5b6000819050919050565b610eb681610ea3565b8114610ec157600080fd5b50565b600081359050610ed381610ead565b92915050565b600060208284031215610eef57610eee610e99565b5b6000610efd84828501610ec4565b91505092915050565b600081519050919050565b600082825260208201905092915050565b60005b83811015610f40578082015181840152602081019050610f25565b83811115610f4f576000848401525b50505050565b6000601f19601f8301169050919050565b6000610f7182610f06565b610f7b8185610f11565b9350610f8b818560208601610f22565b610f9481610f55565b840191505092915050565b60008115159050919050565b610fb481610f9f565b82525050565b610fc381610ea3565b82525050565b60006080820190508181036000830152610fe38187610f66565b9050610ff26020830186610fab565b610fff6040830185610fab565b61100c6060830184610fba565b95945050505050565b6000806040838503121561102c5761102b610e99565b5b600061103a85828601610ec4565b925050602061104b85828601610ec4565b9150509250929050565b600080fd5b600080fd5b7f4e487b7100000000000000000000000000000000000000000000000000000000600052604160045260246000fd5b61109782610f55565b810181811067ffffffffffffffff821117156110b6576110b561105f565b5b80604052505050565b60006110c9610e8f565b90506110d5828261108e565b919050565b600067ffffffffffffffff8211156110f5576110f461105f565b5b6110fe82610f55565b9050602081019050919050565b82818337600083830152505050565b600061112d611128846110da565b6110bf565b9050828152602081018484840111156111495761114861105a565b5b61115484828561110b565b509392505050565b600082601f83011261117157611170611055565b5b813561118184826020860161111a565b91505092915050565b600067ffffffffffffffff8211156111a5576111a461105f565b5b602082029050602081019050919050565b600080fd5b60006111ce6111c98461118a565b6110bf565b905080838252602082019050602084028301858111156111f1576111f06111b6565b5b835b8181101561123857803567ffffffffffffffff81111561121657611215611055565b5b808601611223898261115c565b855260208501945050506020810190506111f3565b5050509392505050565b600082601f83011261125757611256611055565b5b81356112678482602086016111bb565b91505092915050565b6000806040838503121561128757611286610e99565b5b600083013567ffffffffffffffff8111156112a5576112a4610e9e565b5b6112b18582860161115c565b925050602083013567ffffffffffffffff8111156112d2576112d1610e9e565b5b6112de85828601611242565b9150509250929050565b600081519050919050565b600082825260208201905092915050565b6000819050602082019050919050565b600082825260208201905092915050565b600061133082610f06565b61133a8185611314565b935061134a818560208601610f22565b61135381610f55565b840191505092915050565b600061136a8383611325565b905092915050565b6000602082019050919050565b600061138a826112e8565b61139481856112f3565b9350836020820285016113a685611304565b8060005b858110156113e257848403895281516113c3858261135e565b94506113ce83611372565b925060208a019950506001810190506113aa565b50829750879550505050505092915050565b600060a082019050818103600083015261140e8188610f66565b90508181036020830152611422818761137f565b90506114316040830186610fab565b61143e6060830185610fab565b61144b6080830184610fba565b9695505050505050565b600073ffffffffffffffffffffffffffffffffffffffff82169050919050565b600061148082611455565b9050919050565b61149081611475565b82525050565b60006020820190506114ab6000830184611487565b92915050565b7f4e487b7100000000000000000000000000000000000000000000000000000000600052602260045260246000fd5b600060028204905060018216806114f857607f821691505b60208210810361150b5761150a6114b1565b5b50919050565b7f4576656e746f20696e76616c69646f2e00000000000000000000000000000000600082015250565b6000611547601083610f11565b915061155282611511565b602082019050919050565b600060208201905081810360008301526115768161153a565b9050919050565b7f4e487b7100000000000000000000000000000000000000000000000000000000600052603260045260246000fd5b7f4576656e746f206e616f206573746120617469766f2e00000000000000000000600082015250565b60006115e2601683610f11565b91506115ed826115ac565b602082019050919050565b60006020820190508181036000830152611611816115d5565b9050919050565b7f566f636520707265636973612061706f7374617220616c67756d2076616c6f7260008201527f2e00000000000000000000000000000000000000000000000000000000000000602082015250565b6000611674602183610f11565b915061167f82611618565b604082019050919050565b600060208201905081810360008301526116a381611667565b9050919050565b7f4e487b7100000000000000000000000000000000000000000000000000000000600052601160045260246000fd5b60006116e482610ea3565b91506116ef83610ea3565b9250827fffffffffffffffffffffffffffffffffffffffffffffffffffffffffffffffff03821115611724576117236116aa565b5b828201905092915050565b60006060820190506117446000830186610fba565b6117516020830185610fba565b61175e6040830184610fba565b949350505050565b7f4f206576656e746f2064657665207465722070656c6f206d656e6f7320646f6960008201527f7320726573756c7461646f7320706f737369766569732e000000000000000000602082015250565b60006117c2603783610f11565b91506117cd82611766565b604082019050919050565b600060208201905081810360008301526117f1816117b5565b9050919050565b600061180382610ea3565b915061180e83610ea3565b925082821015611821576118206116aa565b5b828203905092915050565b60006040820190506118416000830185610fba565b81810360208301526118538184610f66565b90509392505050565b7f536f6d656e7465206f20646f6e6f20706f64652065786563757461722065737460008201527f612066756e63616f2e0000000000000000000000000000000000000000000000602082015250565b60006118b8602983610f11565b91506118c38261185c565b604082019050919050565b600060208201905081810360008301526118e7816118ab565b9050919050565b7f4576656e746f206a6120666f692066696e616c697a61646f2e00000000000000600082015250565b6000611924601983610f11565b915061192f826118ee565b602082019050919050565b6000602082019050818103600083015261195381611917565b9050919050565b7f526573756c7461646f20696e76616c69646f2e00000000000000000000000000600082015250565b6000611990601383610f11565b915061199b8261195a565b602082019050919050565b600060208201905081810360008301526119bf81611983565b9050919050565b60006119d182610ea3565b91506119dc83610ea3565b9250817fffffffffffffffffffffffffffffffffffffffffffffffffffffffffffffffff0483118215151615611a1557611a146116aa565b5b828202905092915050565b7f4e487b7100000000000000000000000000000000000000000000000000000000600052601260045260246000fd5b6000611a5a82610ea3565b9150611a6583610ea3565b925082611a7557611a74611a20565b5b828204905092915050565b6000611a8b82610ea3565b91507fffffffffffffffffffffffffffffffffffffffffffffffffffffffffffffffff8203611abd57611abc6116aa565b5b600182019050919050565b6000604082019050611add6000830185610fba565b611aea6020830184610fba565b939250505056fea26469706673582212207b03d7bb6142cf1ceecff526b457d6e9a4978a6cfb2ff2c48a6adc1c3d1e056164736f6c634300080d0033",
  "immutableReferences": {},
  "source": "// SPDX-License-Identifier: MIT\npragma solidity ^0.8.0;\n\ncontract BettingSystem {\n    struct Event {\n        string description;  // Descrio do evento\n        string[] outcomes;   // Resultados possveis (ex.: \"cara\", \"coroa\")\n        bool active;         // Se o evento ainda est ativo\n        bool finalized;      // Se o evento foi finalizado\n        uint256 winningOutcomeIndex; // ndice do resultado vencedor\n        mapping(uint256 => uint256) totalBets; // Valor total apostado em cada resultado\n        mapping(address => uint256) bets; // Aposta do usurio\n        mapping(address => uint256) selectedOutcome; // Resultado escolhido pelo usurio\n    }\n\n    Event[] public events; // Lista de eventos\n    mapping(uint256 => address[]) public participants; // Participantes por evento\n    address public owner;\n\n    constructor() {\n        owner = msg.sender;\n    }\n\n    modifier onlyOwner() {\n        require(msg.sender == owner, \"Somente o dono pode executar esta funcao.\");\n        _;\n    }\n\n    event BetCriada(uint256 eventId, string description);\n    event BetEfetuada(uint256 eventId, address indexed user, uint256 amount, uint256 outcome);\n    event BetFinalizada(uint256 eventId, uint256 result);\n\n    function createEvent(string memory _description, string[] memory _outcomes) public {\n        require(_outcomes.length >= 2, \"O evento deve ter pelo menos dois resultados possiveis.\");\n\n        Event storage newEvent = events.push();\n        newEvent.description = _description;\n        newEvent.outcomes = _outcomes;\n        newEvent.active = true;\n        newEvent.finalized = false;\n\n        uint256 eventId = events.length;\n\n        emit BetCriada(eventId-1, _description);\n    }\n\n    function placeBet(uint256 _eventId, uint256 _outcomeIndex) public payable {\n        require(_eventId < events.length, \"Evento invalido.\");\n        require(events[_eventId].active, \"Evento nao esta ativo.\");\n        require(msg.value > 0, \"Voce precisa apostar algum valor.\");\n\n        Event storage betEvent = events[_eventId];\n        betEvent.totalBets[_outcomeIndex] += msg.value;\n        betEvent.bets[msg.sender] += msg.value;\n        betEvent.selectedOutcome[msg.sender] = _outcomeIndex;\n        participants[_eventId].push(msg.sender);\n\n        emit BetEfetuada(_eventId, msg.sender, msg.value, _outcomeIndex);\n    }\n\n    function finalizeEvent(uint256 _eventId, uint256 _winningOutcomeIndex) public onlyOwner {\n        require(_eventId < events.length, \"Evento invalido.\");\n        Event storage betEvent = events[_eventId];\n        require(betEvent.active, \"Evento ja foi finalizado.\");\n        require(_winningOutcomeIndex < betEvent.outcomes.length, \"Resultado invalido.\");\n\n        betEvent.active = false;\n        betEvent.finalized = true;\n        betEvent.winningOutcomeIndex = _winningOutcomeIndex;\n\n        // Distribuir fundos\n        address[] memory eventParticipants = participants[_eventId];\n        uint256 totalPool = betEvent.totalBets[_winningOutcomeIndex];\n\n        for (uint256 i = 0; i < eventParticipants.length; i++) {\n            address user = eventParticipants[i];\n            if (betEvent.selectedOutcome[user] == _winningOutcomeIndex) {\n                uint256 reward = (betEvent.bets[user] * totalPool) /\n                    betEvent.totalBets[_winningOutcomeIndex];\n                payable(user).transfer(reward);\n            }\n        }\n\n        emit BetFinalizada(_eventId, _winningOutcomeIndex);\n    }\n\n    function getEvent(uint256 _eventId) public view returns (string memory, string[] memory, bool, bool, uint256) {\n        require(_eventId < events.length, \"Evento invalido.\");\n        Event storage betEvent = events[_eventId];\n        return (\n            betEvent.description,\n            betEvent.outcomes,\n            betEvent.active,\n            betEvent.finalized,\n            betEvent.winningOutcomeIndex\n        );\n    }\n}\n",
  "sourcePath": "/home/leticia/Documentos/uefs/24.2/distributed-bet/contracts/BettingSystem.sol",
  "compiler": {
    "name": "solc",
    "version": "0.8.13+commit.abaa5c0e.Emscripten.clang"
  },
  "schemaVersion": "3.4.16",
  "updatedAt": "2024-12-02T19:17:47.802Z",
  "networkType": "ethereum",
  "devdoc": {
    "kind": "dev",
    "methods": {},
    "version": 1
  },
  "userdoc": {
    "kind": "user",
    "methods": {},
    "version": 1
  }
}