{
  "contractName": "BettingSystem",
  "abi": [
    {
      "inputs": [],
      "stateMutability": "nonpayable",
      "type": "constructor"
    },
    {
      "anonymous": false,
      "inputs": [
        {
          "indexed": false,
          "internalType": "uint256",
          "name": "eventId",
          "type": "uint256"
        },
        {
          "indexed": false,
          "internalType": "string",
          "name": "description",
          "type": "string"
        }
      ],
      "name": "BetCriada",
      "type": "event"
    },
    {
      "anonymous": false,
      "inputs": [
        {
          "indexed": false,
          "internalType": "uint256",
          "name": "eventId",
          "type": "uint256"
        },
        {
          "indexed": true,
          "internalType": "address",
          "name": "user",
          "type": "address"
        },
        {
          "indexed": false,
          "internalType": "uint256",
          "name": "amount",
          "type": "uint256"
        },
        {
          "indexed": false,
          "internalType": "uint256",
          "name": "outcome",
          "type": "uint256"
        },
        {
          "indexed": false,
          "internalType": "string",
          "name": "description",
          "type": "string"
        }
      ],
      "name": "BetEfetuada",
      "type": "event"
    },
    {
      "anonymous": false,
      "inputs": [
        {
          "indexed": false,
          "internalType": "uint256",
          "name": "eventId",
          "type": "uint256"
        },
        {
          "indexed": false,
          "internalType": "uint256",
          "name": "result",
          "type": "uint256"
        },
        {
          "indexed": false,
          "internalType": "string",
          "name": "description",
          "type": "string"
        }
      ],
      "name": "BetFinalizada",
      "type": "event"
    },
    {
      "inputs": [
        {
          "internalType": "uint256",
          "name": "",
          "type": "uint256"
        }
      ],
      "name": "events",
      "outputs": [
        {
          "internalType": "string",
          "name": "description",
          "type": "string"
        },
        {
          "internalType": "bool",
          "name": "active",
          "type": "bool"
        },
        {
          "internalType": "bool",
          "name": "finalized",
          "type": "bool"
        },
        {
          "internalType": "uint256",
          "name": "winningOutcomeIndex",
          "type": "uint256"
        }
      ],
      "stateMutability": "view",
      "type": "function",
      "constant": true
    },
    {
      "inputs": [],
      "name": "owner",
      "outputs": [
        {
          "internalType": "address",
          "name": "",
          "type": "address"
        }
      ],
      "stateMutability": "view",
      "type": "function",
      "constant": true
    },
    {
      "inputs": [
        {
          "internalType": "uint256",
          "name": "",
          "type": "uint256"
        },
        {
          "internalType": "uint256",
          "name": "",
          "type": "uint256"
        }
      ],
      "name": "participants",
      "outputs": [
        {
          "internalType": "address",
          "name": "",
          "type": "address"
        }
      ],
      "stateMutability": "view",
      "type": "function",
      "constant": true
    },
    {
      "inputs": [
        {
          "internalType": "string",
          "name": "_description",
          "type": "string"
        },
        {
          "internalType": "string[]",
          "name": "_outcomes",
          "type": "string[]"
        }
      ],
      "name": "createEvent",
      "outputs": [],
      "stateMutability": "nonpayable",
      "type": "function"
    },
    {
      "inputs": [
        {
          "internalType": "uint256",
          "name": "_eventId",
          "type": "uint256"
        },
        {
          "internalType": "uint256",
          "name": "_outcomeIndex",
          "type": "uint256"
        }
      ],
      "name": "placeBet",
      "outputs": [],
      "stateMutability": "payable",
      "type": "function",
      "payable": true
    },
    {
      "inputs": [
        {
          "internalType": "uint256",
          "name": "_eventId",
          "type": "uint256"
        },
        {
          "internalType": "uint256",
          "name": "_winningOutcomeIndex",
          "type": "uint256"
        }
      ],
      "name": "finalizeEvent",
      "outputs": [],
      "stateMutability": "nonpayable",
      "type": "function"
    },
    {
      "inputs": [
        {
          "internalType": "uint256",
          "name": "_eventId",
          "type": "uint256"
        }
      ],
      "name": "getEvent",
      "outputs": [
        {
          "internalType": "string",
          "name": "",
          "type": "string"
        },
        {
          "internalType": "string[]",
          "name": "",
          "type": "string[]"
        },
        {
          "internalType": "bool",
          "name": "",
          "type": "bool"
        },
        {
          "internalType": "bool",
          "name": "",
          "type": "bool"
        },
        {
          "internalType": "uint256",
          "name": "",
          "type": "uint256"
        }
      ],
      "stateMutability": "view",
      "type": "function",
      "constant": true
    }
  ],
  "bytecode": "0x608060405234801561001057600080fd5b5033600260006101000a81548173ffffffffffffffffffffffffffffffffffffffff021916908373ffffffffffffffffffffffffffffffffffffffff160217905550611bb0806100616000396000f3fe6080604052600436106100705760003560e01c80636d1884e01161004e5780636d1884e0146100fa57806381fb1fb41461013b5780638da5cb5b14610178578063c28edd4e146101a357610070565b80630b791430146100755780634afe62b5146100b55780636a03942f146100d1575b600080fd5b34801561008157600080fd5b5061009c60048036038101906100979190610ed7565b6101cc565b6040516100ac9493929190610fc7565b60405180910390f35b6100cf60048036038101906100ca9190611013565b6102ae565b005b3480156100dd57600080fd5b506100f860048036038101906100f3919061126e565b610569565b005b34801561010657600080fd5b50610121600480360381019061011c9190610ed7565b610685565b6040516101329594939291906113f2565b60405180910390f35b34801561014757600080fd5b50610162600480360381019061015d9190611013565b61089c565b60405161016f9190611494565b60405180910390f35b34801561018457600080fd5b5061018d6108ea565b60405161019a9190611494565b60405180910390f35b3480156101af57600080fd5b506101ca60048036038101906101c59190611013565b610910565b005b600081815481106101dc57600080fd5b90600052602060002090600702016000915090508060000180546101ff906114de565b80601f016020809104026020016040519081016040528092919081815260200182805461022b906114de565b80156102785780601f1061024d57610100808354040283529160200191610278565b820191906000526020600020905b81548152906001019060200180831161025b57829003601f168201915b5050505050908060020160009054906101000a900460ff16908060020160019054906101000a900460ff16908060030154905084565b60008054905082106102f5576040517f08c379a00000000000000000000000000000000000000000000000000000000081526004016102ec9061155b565b60405180910390fd5b600082815481106103095761030861157b565b5b906000526020600020906007020160020160009054906101000a900460ff16610367576040517f08c379a000000000000000000000000000000000000000000000000000000000815260040161035e906115f6565b60405180910390fd5b600034116103aa576040517f08c379a00000000000000000000000000000000000000000000000000000000081526004016103a190611688565b60405180910390fd5b60008083815481106103bf576103be61157b565b5b906000526020600020906007020190503481600401600084815260200190815260200160002060008282546103f491906116d7565b92505081905550348160050160003373ffffffffffffffffffffffffffffffffffffffff1673ffffffffffffffffffffffffffffffffffffffff168152602001908152602001600020600082825461044c91906116d7565b92505081905550818160060160003373ffffffffffffffffffffffffffffffffffffffff1673ffffffffffffffffffffffffffffffffffffffff1681526020019081526020016000208190555060016000848152602001908152602001600020339080600181540180825580915050600190039060005260206000200160009091909190916101000a81548173ffffffffffffffffffffffffffffffffffffffff021916908373ffffffffffffffffffffffffffffffffffffffff1602179055503373ffffffffffffffffffffffffffffffffffffffff167f1598ca4fc7da37bb34311e2b7024caa89f4b6d26d9061297a7be000839a5315b8434858560000160405161055c94939291906117c2565b60405180910390a2505050565b6002815110156105ae576040517f08c379a00000000000000000000000000000000000000000000000000000000081526004016105a590611880565b60405180910390fd5b6000808054905090506000806001816001815401808255809150500390600052602060002090600702019050838160000190805190602001906105f2929190610d26565b508281600101908051906020019061060b929190610dac565b5060018160020160006101000a81548160ff02191690831515021790555060008160020160016101000a81548160ff0219169083151502179055507f62b9c9abbba9982c22e41c910aa408146fa8ed1b34dedfd4c504389f987f2f0a82856040516106779291906118a0565b60405180910390a150505050565b6060806000806000808054905086106106d3576040517f08c379a00000000000000000000000000000000000000000000000000000000081526004016106ca9061155b565b60405180910390fd5b60008087815481106106e8576106e761157b565b5b9060005260206000209060070201905080600001816001018260020160009054906101000a900460ff168360020160019054906101000a900460ff168460030154848054610735906114de565b80601f0160208091040260200160405190810160405280929190818152602001828054610761906114de565b80156107ae5780601f10610783576101008083540402835291602001916107ae565b820191906000526020600020905b81548152906001019060200180831161079157829003601f168201915b5050505050945083805480602002602001604051908101604052809291908181526020016000905b828210156108825783829060005260206000200180546107f5906114de565b80601f0160208091040260200160405190810160405280929190818152602001828054610821906114de565b801561086e5780601f106108435761010080835404028352916020019161086e565b820191906000526020600020905b81548152906001019060200180831161085157829003601f168201915b5050505050815260200190600101906107d6565b505050509350955095509550955095505091939590929450565b600160205281600052604060002081815481106108b857600080fd5b906000526020600020016000915091509054906101000a900473ffffffffffffffffffffffffffffffffffffffff1681565b600260009054906101000a900473ffffffffffffffffffffffffffffffffffffffff1681565b600260009054906101000a900473ffffffffffffffffffffffffffffffffffffffff1673ffffffffffffffffffffffffffffffffffffffff163373ffffffffffffffffffffffffffffffffffffffff16146109a0576040517f08c379a000000000000000000000000000000000000000000000000000000000815260040161099790611942565b60405180910390fd5b60008054905082106109e7576040517f08c379a00000000000000000000000000000000000000000000000000000000081526004016109de9061155b565b60405180910390fd5b60008083815481106109fc576109fb61157b565b5b906000526020600020906007020190508060020160009054906101000a900460ff16610a5d576040517f08c379a0000000000000000000000000000000000000000000000000000000008152600401610a54906119ae565b60405180910390fd5b80600101805490508210610aa6576040517f08c379a0000000000000000000000000000000000000000000000000000000008152600401610a9d90611a1a565b60405180910390fd5b60008160020160006101000a81548160ff02191690831515021790555060018160020160016101000a81548160ff021916908315150217905550818160030181905550600060016000858152602001908152602001600020805480602002602001604051908101604052809291908181526020018280548015610b7e57602002820191906000526020600020905b8160009054906101000a900473ffffffffffffffffffffffffffffffffffffffff1673ffffffffffffffffffffffffffffffffffffffff1681526020019060010190808311610b34575b50505050509050600082600401600085815260200190815260200160002054905060005b8251811015610ce0576000838281518110610bc057610bbf61157b565b5b60200260200101519050858560060160008373ffffffffffffffffffffffffffffffffffffffff1673ffffffffffffffffffffffffffffffffffffffff1681526020019081526020016000205403610ccc57600085600401600088815260200190815260200160002054848760050160008573ffffffffffffffffffffffffffffffffffffffff1673ffffffffffffffffffffffffffffffffffffffff16815260200190815260200160002054610c779190611a3a565b610c819190611ac3565b90508173ffffffffffffffffffffffffffffffffffffffff166108fc829081150290604051600060405180830381858888f19350505050158015610cc9573d6000803e3d6000fd5b50505b508080610cd890611af4565b915050610ba2565b507fa7600e4dbbe34b545b2dc6ababa76bfef560224ba6dbecb16ee87e973e0689dc858585600001604051610d1793929190611b3c565b60405180910390a15050505050565b828054610d32906114de565b90600052602060002090601f016020900481019282610d545760008555610d9b565b82601f10610d6d57805160ff1916838001178555610d9b565b82800160010185558215610d9b579182015b82811115610d9a578251825591602001919060010190610d7f565b5b509050610da89190610e0c565b5090565b828054828255906000526020600020908101928215610dfb579160200282015b82811115610dfa578251829080519060200190610dea929190610d26565b5091602001919060010190610dcc565b5b509050610e089190610e29565b5090565b5b80821115610e25576000816000905550600101610e0d565b5090565b5b80821115610e495760008181610e409190610e4d565b50600101610e2a565b5090565b508054610e59906114de565b6000825580601f10610e6b5750610e8a565b601f016020900490600052602060002090810190610e899190610e0c565b5b50565b6000604051905090565b600080fd5b600080fd5b6000819050919050565b610eb481610ea1565b8114610ebf57600080fd5b50565b600081359050610ed181610eab565b92915050565b600060208284031215610eed57610eec610e97565b5b6000610efb84828501610ec2565b91505092915050565b600081519050919050565b600082825260208201905092915050565b60005b83811015610f3e578082015181840152602081019050610f23565b83811115610f4d576000848401525b50505050565b6000601f19601f8301169050919050565b6000610f6f82610f04565b610f798185610f0f565b9350610f89818560208601610f20565b610f9281610f53565b840191505092915050565b60008115159050919050565b610fb281610f9d565b82525050565b610fc181610ea1565b82525050565b60006080820190508181036000830152610fe18187610f64565b9050610ff06020830186610fa9565b610ffd6040830185610fa9565b61100a6060830184610fb8565b95945050505050565b6000806040838503121561102a57611029610e97565b5b600061103885828601610ec2565b925050602061104985828601610ec2565b9150509250929050565b600080fd5b600080fd5b7f4e487b7100000000000000000000000000000000000000000000000000000000600052604160045260246000fd5b61109582610f53565b810181811067ffffffffffffffff821117156110b4576110b361105d565b5b80604052505050565b60006110c7610e8d565b90506110d3828261108c565b919050565b600067ffffffffffffffff8211156110f3576110f261105d565b5b6110fc82610f53565b9050602081019050919050565b82818337600083830152505050565b600061112b611126846110d8565b6110bd565b90508281526020810184848401111561114757611146611058565b5b611152848285611109565b509392505050565b600082601f83011261116f5761116e611053565b5b813561117f848260208601611118565b91505092915050565b600067ffffffffffffffff8211156111a3576111a261105d565b5b602082029050602081019050919050565b600080fd5b60006111cc6111c784611188565b6110bd565b905080838252602082019050602084028301858111156111ef576111ee6111b4565b5b835b8181101561123657803567ffffffffffffffff81111561121457611213611053565b5b808601611221898261115a565b855260208501945050506020810190506111f1565b5050509392505050565b600082601f83011261125557611254611053565b5b81356112658482602086016111b9565b91505092915050565b6000806040838503121561128557611284610e97565b5b600083013567ffffffffffffffff8111156112a3576112a2610e9c565b5b6112af8582860161115a565b925050602083013567ffffffffffffffff8111156112d0576112cf610e9c565b5b6112dc85828601611240565b9150509250929050565b600081519050919050565b600082825260208201905092915050565b6000819050602082019050919050565b600082825260208201905092915050565b600061132e82610f04565b6113388185611312565b9350611348818560208601610f20565b61135181610f53565b840191505092915050565b60006113688383611323565b905092915050565b6000602082019050919050565b6000611388826112e6565b61139281856112f1565b9350836020820285016113a485611302565b8060005b858110156113e057848403895281516113c1858261135c565b94506113cc83611370565b925060208a019950506001810190506113a8565b50829750879550505050505092915050565b600060a082019050818103600083015261140c8188610f64565b90508181036020830152611420818761137d565b905061142f6040830186610fa9565b61143c6060830185610fa9565b6114496080830184610fb8565b9695505050505050565b600073ffffffffffffffffffffffffffffffffffffffff82169050919050565b600061147e82611453565b9050919050565b61148e81611473565b82525050565b60006020820190506114a96000830184611485565b92915050565b7f4e487b7100000000000000000000000000000000000000000000000000000000600052602260045260246000fd5b600060028204905060018216806114f657607f821691505b602082108103611509576115086114af565b5b50919050565b7f4576656e746f20696e76616c69646f2e00000000000000000000000000000000600082015250565b6000611545601083610f0f565b91506115508261150f565b602082019050919050565b6000602082019050818103600083015261157481611538565b9050919050565b7f4e487b7100000000000000000000000000000000000000000000000000000000600052603260045260246000fd5b7f4576656e746f206e616f206573746120617469766f2e00000000000000000000600082015250565b60006115e0601683610f0f565b91506115eb826115aa565b602082019050919050565b6000602082019050818103600083015261160f816115d3565b9050919050565b7f566f636520707265636973612061706f7374617220616c67756d2076616c6f7260008201527f2e00000000000000000000000000000000000000000000000000000000000000602082015250565b6000611672602183610f0f565b915061167d82611616565b604082019050919050565b600060208201905081810360008301526116a181611665565b9050919050565b7f4e487b7100000000000000000000000000000000000000000000000000000000600052601160045260246000fd5b60006116e282610ea1565b91506116ed83610ea1565b9250827fffffffffffffffffffffffffffffffffffffffffffffffffffffffffffffffff03821115611722576117216116a8565b5b828201905092915050565b60008190508160005260206000209050919050565b6000815461174f816114de565b6117598186610f0f565b945060018216600081146117745760018114611786576117b9565b60ff19831686526020860193506117b9565b61178f8561172d565b60005b838110156117b157815481890152600182019150602081019050611792565b808801955050505b50505092915050565b60006080820190506117d76000830187610fb8565b6117e46020830186610fb8565b6117f16040830185610fb8565b81810360608301526118038184611742565b905095945050505050565b7f4f206576656e746f2064657665207465722070656c6f206d656e6f7320646f6960008201527f7320726573756c7461646f7320706f737369766569732e000000000000000000602082015250565b600061186a603783610f0f565b91506118758261180e565b604082019050919050565b600060208201905081810360008301526118998161185d565b9050919050565b60006040820190506118b56000830185610fb8565b81810360208301526118c78184610f64565b90509392505050565b7f536f6d656e7465206f20646f6e6f20706f64652065786563757461722065737460008201527f612066756e63616f2e0000000000000000000000000000000000000000000000602082015250565b600061192c602983610f0f565b9150611937826118d0565b604082019050919050565b6000602082019050818103600083015261195b8161191f565b9050919050565b7f4576656e746f206a6120666f692066696e616c697a61646f2e00000000000000600082015250565b6000611998601983610f0f565b91506119a382611962565b602082019050919050565b600060208201905081810360008301526119c78161198b565b9050919050565b7f526573756c7461646f20696e76616c69646f2e00000000000000000000000000600082015250565b6000611a04601383610f0f565b9150611a0f826119ce565b602082019050919050565b60006020820190508181036000830152611a33816119f7565b9050919050565b6000611a4582610ea1565b9150611a5083610ea1565b9250817fffffffffffffffffffffffffffffffffffffffffffffffffffffffffffffffff0483118215151615611a8957611a886116a8565b5b828202905092915050565b7f4e487b7100000000000000000000000000000000000000000000000000000000600052601260045260246000fd5b6000611ace82610ea1565b9150611ad983610ea1565b925082611ae957611ae8611a94565b5b828204905092915050565b6000611aff82610ea1565b91507fffffffffffffffffffffffffffffffffffffffffffffffffffffffffffffffff8203611b3157611b306116a8565b5b600182019050919050565b6000606082019050611b516000830186610fb8565b611b5e6020830185610fb8565b8181036040830152611b708184611742565b905094935050505056fea264697066735822122022f75b30f8b2afd997140c7f511947a98e44c84a0b4ce118da4dc4ae69dbb42364736f6c634300080d0033",
  "immutableReferences": {},
  "source": "// SPDX-License-Identifier: MIT\npragma solidity ^0.8.0;\n\ncontract BettingSystem {\n    struct Event {\n        string description;  // Descrio do evento\n        string[] outcomes;   // Resultados possveis (ex.: \"cara\", \"coroa\")\n        bool active;         // Se o evento ainda est ativo\n        bool finalized;      // Se o evento foi finalizado\n        uint256 winningOutcomeIndex; // ndice do resultado vencedor\n        mapping(uint256 => uint256) totalBets; // Valor total apostado em cada resultado\n        mapping(address => uint256) bets; // Aposta do usurio\n        mapping(address => uint256) selectedOutcome; // Resultado escolhido pelo usurio\n    }\n\n    Event[] public events; // Lista de eventos\n    mapping(uint256 => address[]) public participants; // Participantes por evento\n    address public owner;\n\n    constructor() {\n        owner = msg.sender;\n    }\n\n    modifier onlyOwner() {\n        require(msg.sender == owner, \"Somente o dono pode executar esta funcao.\");\n        _;\n    }\n\n    event BetCriada(uint256 eventId, string description);\n    event BetEfetuada(uint256 eventId, address indexed user, uint256 amount, uint256 outcome, string description);\n    event BetFinalizada(uint256 eventId, uint256 result, string description);\n\n    function createEvent(string memory _description, string[] memory _outcomes) public {\n        require(_outcomes.length >= 2, \"O evento deve ter pelo menos dois resultados possiveis.\");\n        uint256 eventId = events.length; // verificar antes de add um novo na lista porque comea do zero\n\n        Event storage newEvent = events.push();\n        newEvent.description = _description;\n        newEvent.outcomes = _outcomes;\n        newEvent.active = true;\n        newEvent.finalized = false;\n\n\n        emit BetCriada(eventId, _description);\n    }\n\n    function placeBet(uint256 _eventId, uint256 _outcomeIndex) public payable {\n        require(_eventId < events.length, \"Evento invalido.\");\n        require(events[_eventId].active, \"Evento nao esta ativo.\");\n        require(msg.value > 0, \"Voce precisa apostar algum valor.\");\n\n        Event storage betEvent = events[_eventId];\n        betEvent.totalBets[_outcomeIndex] += msg.value;\n        betEvent.bets[msg.sender] += msg.value;\n        betEvent.selectedOutcome[msg.sender] = _outcomeIndex;\n        participants[_eventId].push(msg.sender);\n\n        emit BetEfetuada(_eventId, msg.sender, msg.value, _outcomeIndex, betEvent.description);\n    }\n\n    function finalizeEvent(uint256 _eventId, uint256 _winningOutcomeIndex) public onlyOwner {\n        require(_eventId < events.length, \"Evento invalido.\");\n        Event storage betEvent = events[_eventId];\n        require(betEvent.active, \"Evento ja foi finalizado.\");\n        require(_winningOutcomeIndex < betEvent.outcomes.length, \"Resultado invalido.\");\n\n        betEvent.active = false;\n        betEvent.finalized = true;\n        betEvent.winningOutcomeIndex = _winningOutcomeIndex;\n\n        // Distribuir fundos\n        address[] memory eventParticipants = participants[_eventId];\n        uint256 totalPool = betEvent.totalBets[_winningOutcomeIndex];\n\n        for (uint256 i = 0; i < eventParticipants.length; i++) {\n            address user = eventParticipants[i];\n            if (betEvent.selectedOutcome[user] == _winningOutcomeIndex) {\n                uint256 reward = (betEvent.bets[user] * totalPool) /\n                    betEvent.totalBets[_winningOutcomeIndex];\n                payable(user).transfer(reward);\n            }\n        }\n\n        emit BetFinalizada(_eventId, _winningOutcomeIndex, betEvent.description);\n    }\n\n    function getEvent(uint256 _eventId) public view returns (string memory, string[] memory, bool, bool, uint256) {\n        require(_eventId < events.length, \"Evento invalido.\");\n        Event storage betEvent = events[_eventId];\n        return (\n            betEvent.description,\n            betEvent.outcomes,\n            betEvent.active,\n            betEvent.finalized,\n            betEvent.winningOutcomeIndex\n        );\n    }\n}\n",
  "sourcePath": "/home/leticia/Documentos/uefs/24.2/distributed-bet/contracts/BettingSystem.sol",
  "compiler": {
    "name": "solc",
    "version": "0.8.13+commit.abaa5c0e.Emscripten.clang"
  },
  "schemaVersion": "3.4.16",
  "updatedAt": "2024-12-13T19:40:49.924Z",
  "networkType": "ethereum",
  "devdoc": {
    "kind": "dev",
    "methods": {},
    "version": 1
  },
  "userdoc": {
    "kind": "user",
    "methods": {},
    "version": 1
  }
}