{
  "contractName": "BettingSystem",
  "abi": [
    {
      "inputs": [],
      "stateMutability": "nonpayable",
      "type": "constructor"
    },
    {
      "anonymous": false,
      "inputs": [
        {
          "indexed": true,
          "internalType": "uint256",
          "name": "eventId",
          "type": "uint256"
        },
        {
          "indexed": false,
          "internalType": "string",
          "name": "description",
          "type": "string"
        }
      ],
      "name": "EventCreated",
      "type": "event"
    },
    {
      "inputs": [
        {
          "internalType": "uint256",
          "name": "",
          "type": "uint256"
        },
        {
          "internalType": "address",
          "name": "",
          "type": "address"
        }
      ],
      "name": "bets",
      "outputs": [
        {
          "internalType": "uint256",
          "name": "",
          "type": "uint256"
        }
      ],
      "stateMutability": "view",
      "type": "function",
      "constant": true
    },
    {
      "inputs": [
        {
          "internalType": "uint256",
          "name": "",
          "type": "uint256"
        }
      ],
      "name": "events",
      "outputs": [
        {
          "internalType": "string",
          "name": "description",
          "type": "string"
        },
        {
          "internalType": "bool",
          "name": "active",
          "type": "bool"
        },
        {
          "internalType": "bool",
          "name": "finalized",
          "type": "bool"
        },
        {
          "internalType": "uint256",
          "name": "winningOutcomeIndex",
          "type": "uint256"
        }
      ],
      "stateMutability": "view",
      "type": "function",
      "constant": true
    },
    {
      "inputs": [],
      "name": "owner",
      "outputs": [
        {
          "internalType": "address",
          "name": "",
          "type": "address"
        }
      ],
      "stateMutability": "view",
      "type": "function",
      "constant": true
    },
    {
      "inputs": [
        {
          "internalType": "uint256",
          "name": "",
          "type": "uint256"
        },
        {
          "internalType": "uint256",
          "name": "",
          "type": "uint256"
        }
      ],
      "name": "participants",
      "outputs": [
        {
          "internalType": "address",
          "name": "",
          "type": "address"
        }
      ],
      "stateMutability": "view",
      "type": "function",
      "constant": true
    },
    {
      "inputs": [
        {
          "internalType": "uint256",
          "name": "",
          "type": "uint256"
        },
        {
          "internalType": "address",
          "name": "",
          "type": "address"
        }
      ],
      "name": "selectedOutcome",
      "outputs": [
        {
          "internalType": "uint256",
          "name": "",
          "type": "uint256"
        }
      ],
      "stateMutability": "view",
      "type": "function",
      "constant": true
    },
    {
      "inputs": [
        {
          "internalType": "uint256",
          "name": "",
          "type": "uint256"
        },
        {
          "internalType": "uint256",
          "name": "",
          "type": "uint256"
        }
      ],
      "name": "totalBets",
      "outputs": [
        {
          "internalType": "uint256",
          "name": "",
          "type": "uint256"
        }
      ],
      "stateMutability": "view",
      "type": "function",
      "constant": true
    },
    {
      "inputs": [
        {
          "internalType": "string",
          "name": "_description",
          "type": "string"
        },
        {
          "internalType": "string[]",
          "name": "_outcomes",
          "type": "string[]"
        }
      ],
      "name": "createEvent",
      "outputs": [],
      "stateMutability": "nonpayable",
      "type": "function"
    },
    {
      "inputs": [
        {
          "internalType": "uint256",
          "name": "_eventId",
          "type": "uint256"
        },
        {
          "internalType": "uint256",
          "name": "_outcomeIndex",
          "type": "uint256"
        }
      ],
      "name": "placeBet",
      "outputs": [],
      "stateMutability": "payable",
      "type": "function",
      "payable": true
    },
    {
      "inputs": [
        {
          "internalType": "uint256",
          "name": "_eventId",
          "type": "uint256"
        },
        {
          "internalType": "uint256",
          "name": "_winningOutcomeIndex",
          "type": "uint256"
        }
      ],
      "name": "finalizeEvent",
      "outputs": [],
      "stateMutability": "nonpayable",
      "type": "function"
    },
    {
      "inputs": [
        {
          "internalType": "uint256",
          "name": "_eventId",
          "type": "uint256"
        }
      ],
      "name": "getEvent",
      "outputs": [
        {
          "internalType": "string",
          "name": "",
          "type": "string"
        },
        {
          "internalType": "string[]",
          "name": "",
          "type": "string[]"
        },
        {
          "internalType": "bool",
          "name": "",
          "type": "bool"
        },
        {
          "internalType": "bool",
          "name": "",
          "type": "bool"
        },
        {
          "internalType": "uint256",
          "name": "",
          "type": "uint256"
        }
      ],
      "stateMutability": "view",
      "type": "function",
      "constant": true
    }
  ],
  "bytecode": "0x608060405234801561001057600080fd5b5033600560006101000a81548173ffffffffffffffffffffffffffffffffffffffff021916908373ffffffffffffffffffffffffffffffffffffffff160217905550611d47806100616000396000f3fe6080604052600436106100915760003560e01c80638da5cb5b116100595780638da5cb5b14610199578063bd570c0d146101c4578063c28edd4e14610201578063f644b3bb1461022a578063fa03fe431461026757610091565b80630b791430146100965780634afe62b5146100d65780636a03942f146100f25780636d1884e01461011b57806381fb1fb41461015c575b600080fd5b3480156100a257600080fd5b506100bd60048036038101906100b89190611114565b6102a4565b6040516100cd9493929190611204565b60405180910390f35b6100f060048036038101906100eb9190611250565b610386565b005b3480156100fe57600080fd5b50610119600480360381019061011491906114ab565b61065b565b005b34801561012757600080fd5b50610142600480360381019061013d9190611114565b610855565b60405161015395949392919061162f565b60405180910390f35b34801561016857600080fd5b50610183600480360381019061017e9190611250565b610a6c565b60405161019091906116d1565b60405180910390f35b3480156101a557600080fd5b506101ae610aba565b6040516101bb91906116d1565b60405180910390f35b3480156101d057600080fd5b506101eb60048036038101906101e69190611250565b610ae0565b6040516101f891906116ec565b60405180910390f35b34801561020d57600080fd5b5061022860048036038101906102239190611250565b610b05565b005b34801561023657600080fd5b50610251600480360381019061024c9190611733565b610f19565b60405161025e91906116ec565b60405180910390f35b34801561027357600080fd5b5061028e60048036038101906102899190611733565b610f3e565b60405161029b91906116ec565b60405180910390f35b600081815481106102b457600080fd5b90600052602060002090600402016000915090508060000180546102d7906117a2565b80601f0160208091040260200160405190810160405280929190818152602001828054610303906117a2565b80156103505780601f1061032557610100808354040283529160200191610350565b820191906000526020600020905b81548152906001019060200180831161033357829003601f168201915b5050505050908060020160009054906101000a900460ff16908060020160019054906101000a900460ff16908060030154905084565b60008054905082106103cd576040517f08c379a00000000000000000000000000000000000000000000000000000000081526004016103c49061181f565b60405180910390fd5b600082815481106103e1576103e061183f565b5b906000526020600020906004020160020160009054906101000a900460ff1661043f576040517f08c379a0000000000000000000000000000000000000000000000000000000008152600401610436906118ba565b60405180910390fd5b600082815481106104535761045261183f565b5b90600052602060002090600402016001018054905081106104a9576040517f08c379a00000000000000000000000000000000000000000000000000000000081526004016104a090611926565b60405180910390fd5b600034116104ec576040517f08c379a00000000000000000000000000000000000000000000000000000000081526004016104e3906119b8565b60405180910390fd5b3460016000848152602001908152602001600020600083815260200190815260200160002060008282546105209190611a07565b92505081905550346002600084815260200190815260200160002060003373ffffffffffffffffffffffffffffffffffffffff1673ffffffffffffffffffffffffffffffffffffffff16815260200190815260200160002060008282546105879190611a07565b92505081905550806003600084815260200190815260200160002060003373ffffffffffffffffffffffffffffffffffffffff1673ffffffffffffffffffffffffffffffffffffffff1681526020019081526020016000208190555060046000838152602001908152602001600020339080600181540180825580915050600190039060005260206000200160009091909190916101000a81548173ffffffffffffffffffffffffffffffffffffffff021916908373ffffffffffffffffffffffffffffffffffffffff1602179055505050565b600560009054906101000a900473ffffffffffffffffffffffffffffffffffffffff1673ffffffffffffffffffffffffffffffffffffffff163373ffffffffffffffffffffffffffffffffffffffff16146106eb576040517f08c379a00000000000000000000000000000000000000000000000000000000081526004016106e290611acf565b60405180910390fd5b600080805490509050600282511015610739576040517f08c379a000000000000000000000000000000000000000000000000000000000815260040161073090611b61565b60405180910390fd5b60006040518060a001604052808581526020018481526020016001151581526020016000151581526020016000815250908060018154018082558091505060019003906000526020600020906004020160009091909190915060008201518160000190805190602001906107ae929190610f63565b5060208201518160010190805190602001906107cb929190610fe9565b5060408201518160020160006101000a81548160ff02191690831515021790555060608201518160020160016101000a81548160ff021916908315150217905550608082015181600301555050807f9ce3d6db707bca4ba0eabed8fba1e2c013a1c0bc1132a764170a7854d198c73d846040516108489190611b81565b60405180910390a2505050565b6060806000806000808054905086106108a3576040517f08c379a000000000000000000000000000000000000000000000000000000000815260040161089a9061181f565b60405180910390fd5b60008087815481106108b8576108b761183f565b5b9060005260206000209060040201905080600001816001018260020160009054906101000a900460ff168360020160019054906101000a900460ff168460030154848054610905906117a2565b80601f0160208091040260200160405190810160405280929190818152602001828054610931906117a2565b801561097e5780601f106109535761010080835404028352916020019161097e565b820191906000526020600020905b81548152906001019060200180831161096157829003601f168201915b5050505050945083805480602002602001604051908101604052809291908181526020016000905b82821015610a525783829060005260206000200180546109c5906117a2565b80601f01602080910402602001604051908101604052809291908181526020018280546109f1906117a2565b8015610a3e5780601f10610a1357610100808354040283529160200191610a3e565b820191906000526020600020905b815481529060010190602001808311610a2157829003601f168201915b5050505050815260200190600101906109a6565b505050509350955095509550955095505091939590929450565b60046020528160005260406000208181548110610a8857600080fd5b906000526020600020016000915091509054906101000a900473ffffffffffffffffffffffffffffffffffffffff1681565b600560009054906101000a900473ffffffffffffffffffffffffffffffffffffffff1681565b6001602052816000526040600020602052806000526040600020600091509150505481565b600560009054906101000a900473ffffffffffffffffffffffffffffffffffffffff1673ffffffffffffffffffffffffffffffffffffffff163373ffffffffffffffffffffffffffffffffffffffff1614610b95576040517f08c379a0000000000000000000000000000000000000000000000000000000008152600401610b8c90611acf565b60405180910390fd5b6000805490508210610bdc576040517f08c379a0000000000000000000000000000000000000000000000000000000008152600401610bd39061181f565b60405180910390fd5b6000808381548110610bf157610bf061183f565b5b906000526020600020906004020190508060020160009054906101000a900460ff16610c52576040517f08c379a0000000000000000000000000000000000000000000000000000000008152600401610c4990611bef565b60405180910390fd5b80600101805490508210610c9b576040517f08c379a0000000000000000000000000000000000000000000000000000000008152600401610c9290611926565b60405180910390fd5b60008160020160006101000a81548160ff02191690831515021790555060018160020160016101000a81548160ff021916908315150217905550818160030181905550600060046000858152602001908152602001600020805480602002602001604051908101604052809291908181526020018280548015610d7357602002820191906000526020600020905b8160009054906101000a900473ffffffffffffffffffffffffffffffffffffffff1673ffffffffffffffffffffffffffffffffffffffff1681526020019060010190808311610d29575b50505050509050600060016000868152602001908152602001600020600085815260200190815260200160002054905060005b8251811015610f11576000838281518110610dc457610dc361183f565b5b60200260200101519050856003600089815260200190815260200160002060008373ffffffffffffffffffffffffffffffffffffffff1673ffffffffffffffffffffffffffffffffffffffff1681526020019081526020016000205403610efd5760006001600089815260200190815260200160002060008881526020019081526020016000205484600260008b815260200190815260200160002060008573ffffffffffffffffffffffffffffffffffffffff1673ffffffffffffffffffffffffffffffffffffffff16815260200190815260200160002054610ea89190611c0f565b610eb29190611c98565b90508173ffffffffffffffffffffffffffffffffffffffff166108fc829081150290604051600060405180830381858888f19350505050158015610efa573d6000803e3d6000fd5b50505b508080610f0990611cc9565b915050610da6565b505050505050565b6002602052816000526040600020602052806000526040600020600091509150505481565b6003602052816000526040600020602052806000526040600020600091509150505481565b828054610f6f906117a2565b90600052602060002090601f016020900481019282610f915760008555610fd8565b82601f10610faa57805160ff1916838001178555610fd8565b82800160010185558215610fd8579182015b82811115610fd7578251825591602001919060010190610fbc565b5b509050610fe59190611049565b5090565b828054828255906000526020600020908101928215611038579160200282015b82811115611037578251829080519060200190611027929190610f63565b5091602001919060010190611009565b5b5090506110459190611066565b5090565b5b8082111561106257600081600090555060010161104a565b5090565b5b80821115611086576000818161107d919061108a565b50600101611067565b5090565b508054611096906117a2565b6000825580601f106110a857506110c7565b601f0160209004906000526020600020908101906110c69190611049565b5b50565b6000604051905090565b600080fd5b600080fd5b6000819050919050565b6110f1816110de565b81146110fc57600080fd5b50565b60008135905061110e816110e8565b92915050565b60006020828403121561112a576111296110d4565b5b6000611138848285016110ff565b91505092915050565b600081519050919050565b600082825260208201905092915050565b60005b8381101561117b578082015181840152602081019050611160565b8381111561118a576000848401525b50505050565b6000601f19601f8301169050919050565b60006111ac82611141565b6111b6818561114c565b93506111c681856020860161115d565b6111cf81611190565b840191505092915050565b60008115159050919050565b6111ef816111da565b82525050565b6111fe816110de565b82525050565b6000608082019050818103600083015261121e81876111a1565b905061122d60208301866111e6565b61123a60408301856111e6565b61124760608301846111f5565b95945050505050565b60008060408385031215611267576112666110d4565b5b6000611275858286016110ff565b9250506020611286858286016110ff565b9150509250929050565b600080fd5b600080fd5b7f4e487b7100000000000000000000000000000000000000000000000000000000600052604160045260246000fd5b6112d282611190565b810181811067ffffffffffffffff821117156112f1576112f061129a565b5b80604052505050565b60006113046110ca565b905061131082826112c9565b919050565b600067ffffffffffffffff8211156113305761132f61129a565b5b61133982611190565b9050602081019050919050565b82818337600083830152505050565b600061136861136384611315565b6112fa565b90508281526020810184848401111561138457611383611295565b5b61138f848285611346565b509392505050565b600082601f8301126113ac576113ab611290565b5b81356113bc848260208601611355565b91505092915050565b600067ffffffffffffffff8211156113e0576113df61129a565b5b602082029050602081019050919050565b600080fd5b6000611409611404846113c5565b6112fa565b9050808382526020820190506020840283018581111561142c5761142b6113f1565b5b835b8181101561147357803567ffffffffffffffff81111561145157611450611290565b5b80860161145e8982611397565b8552602085019450505060208101905061142e565b5050509392505050565b600082601f83011261149257611491611290565b5b81356114a28482602086016113f6565b91505092915050565b600080604083850312156114c2576114c16110d4565b5b600083013567ffffffffffffffff8111156114e0576114df6110d9565b5b6114ec85828601611397565b925050602083013567ffffffffffffffff81111561150d5761150c6110d9565b5b6115198582860161147d565b9150509250929050565b600081519050919050565b600082825260208201905092915050565b6000819050602082019050919050565b600082825260208201905092915050565b600061156b82611141565b611575818561154f565b935061158581856020860161115d565b61158e81611190565b840191505092915050565b60006115a58383611560565b905092915050565b6000602082019050919050565b60006115c582611523565b6115cf818561152e565b9350836020820285016115e18561153f565b8060005b8581101561161d57848403895281516115fe8582611599565b9450611609836115ad565b925060208a019950506001810190506115e5565b50829750879550505050505092915050565b600060a082019050818103600083015261164981886111a1565b9050818103602083015261165d81876115ba565b905061166c60408301866111e6565b61167960608301856111e6565b61168660808301846111f5565b9695505050505050565b600073ffffffffffffffffffffffffffffffffffffffff82169050919050565b60006116bb82611690565b9050919050565b6116cb816116b0565b82525050565b60006020820190506116e660008301846116c2565b92915050565b600060208201905061170160008301846111f5565b92915050565b611710816116b0565b811461171b57600080fd5b50565b60008135905061172d81611707565b92915050565b6000806040838503121561174a576117496110d4565b5b6000611758858286016110ff565b92505060206117698582860161171e565b9150509250929050565b7f4e487b7100000000000000000000000000000000000000000000000000000000600052602260045260246000fd5b600060028204905060018216806117ba57607f821691505b6020821081036117cd576117cc611773565b5b50919050565b7f4576656e746f20696e76616c69646f2e00000000000000000000000000000000600082015250565b600061180960108361114c565b9150611814826117d3565b602082019050919050565b60006020820190508181036000830152611838816117fc565b9050919050565b7f4e487b7100000000000000000000000000000000000000000000000000000000600052603260045260246000fd5b7f4576656e746f206e616f206573746120617469766f2e00000000000000000000600082015250565b60006118a460168361114c565b91506118af8261186e565b602082019050919050565b600060208201905081810360008301526118d381611897565b9050919050565b7f526573756c7461646f20696e76616c69646f2e00000000000000000000000000600082015250565b600061191060138361114c565b915061191b826118da565b602082019050919050565b6000602082019050818103600083015261193f81611903565b9050919050565b7f566f636520707265636973612061706f7374617220616c67756d2076616c6f7260008201527f2e00000000000000000000000000000000000000000000000000000000000000602082015250565b60006119a260218361114c565b91506119ad82611946565b604082019050919050565b600060208201905081810360008301526119d181611995565b9050919050565b7f4e487b7100000000000000000000000000000000000000000000000000000000600052601160045260246000fd5b6000611a12826110de565b9150611a1d836110de565b9250827fffffffffffffffffffffffffffffffffffffffffffffffffffffffffffffffff03821115611a5257611a516119d8565b5b828201905092915050565b7f536f6d656e7465206f20646f6e6f20706f64652065786563757461722065737460008201527f612066756e63616f2e0000000000000000000000000000000000000000000000602082015250565b6000611ab960298361114c565b9150611ac482611a5d565b604082019050919050565b60006020820190508181036000830152611ae881611aac565b9050919050565b7f4f206576656e746f2064657665207465722070656c6f206d656e6f7320646f6960008201527f7320726573756c7461646f7320706f737369766569732e000000000000000000602082015250565b6000611b4b60378361114c565b9150611b5682611aef565b604082019050919050565b60006020820190508181036000830152611b7a81611b3e565b9050919050565b60006020820190508181036000830152611b9b81846111a1565b905092915050565b7f4576656e746f206a6120666f692066696e616c697a61646f2e00000000000000600082015250565b6000611bd960198361114c565b9150611be482611ba3565b602082019050919050565b60006020820190508181036000830152611c0881611bcc565b9050919050565b6000611c1a826110de565b9150611c25836110de565b9250817fffffffffffffffffffffffffffffffffffffffffffffffffffffffffffffffff0483118215151615611c5e57611c5d6119d8565b5b828202905092915050565b7f4e487b7100000000000000000000000000000000000000000000000000000000600052601260045260246000fd5b6000611ca3826110de565b9150611cae836110de565b925082611cbe57611cbd611c69565b5b828204905092915050565b6000611cd4826110de565b91507fffffffffffffffffffffffffffffffffffffffffffffffffffffffffffffffff8203611d0657611d056119d8565b5b60018201905091905056fea2646970667358221220e157c046079a56fea69f838179a8ab426142659285b6e9a4c18b0b5dc6ca87ae64736f6c634300080d0033",
  "immutableReferences": {},
  "source": "// SPDX-License-Identifier: MIT\npragma solidity ^0.8.0;\n\ncontract BettingSystem {\n    \n    event EventCreated(uint256 indexed eventId, string description); // Evento para criao de evento\n    \n    struct Event {\n        string description;\n        string[] outcomes;\n        bool active;\n        bool finalized;\n        uint256 winningOutcomeIndex;\n    }\n\n    Event[] public events;\n    mapping(uint256 => mapping(uint256 => uint256)) public totalBets; // eventId -> outcome -> total bet amount\n    mapping(uint256 => mapping(address => uint256)) public bets;      // eventId -> user -> bet amount\n    mapping(uint256 => mapping(address => uint256)) public selectedOutcome; // eventId -> user -> outcome index\n    mapping(uint256 => address[]) public participants; // eventId -> participants\n    address public owner;\n\n\n\n    constructor() {\n        owner = msg.sender;\n    }\n\n    modifier onlyOwner() {\n        require(msg.sender == owner, \"Somente o dono pode executar esta funcao.\");\n        _;\n    }\n\n    function createEvent(string memory _description, string[] memory _outcomes) public onlyOwner {\n        uint256 eventId = events.length;\n\n        require(_outcomes.length >= 2, \"O evento deve ter pelo menos dois resultados possiveis.\");\n        events.push(Event({\n            description: _description,\n            outcomes: _outcomes,\n            active: true,\n            finalized: false,\n            winningOutcomeIndex: 0\n        }));\n\n        emit EventCreated(eventId, _description);\n    }\n\n    function placeBet(uint256 _eventId, uint256 _outcomeIndex) public payable {\n        require(_eventId < events.length, \"Evento invalido.\");\n        require(events[_eventId].active, \"Evento nao esta ativo.\");\n        require(_outcomeIndex < events[_eventId].outcomes.length, \"Resultado invalido.\"); // Adicionado\n        require(msg.value > 0, \"Voce precisa apostar algum valor.\");\n\n        totalBets[_eventId][_outcomeIndex] += msg.value;\n        bets[_eventId][msg.sender] += msg.value;\n        selectedOutcome[_eventId][msg.sender] = _outcomeIndex;\n        participants[_eventId].push(msg.sender);\n    }\n\n    function finalizeEvent(uint256 _eventId, uint256 _winningOutcomeIndex) public onlyOwner {\n        require(_eventId < events.length, \"Evento invalido.\");\n        Event storage betEvent = events[_eventId];\n        require(betEvent.active, \"Evento ja foi finalizado.\");\n        require(_winningOutcomeIndex < betEvent.outcomes.length, \"Resultado invalido.\");\n\n        betEvent.active = false;\n        betEvent.finalized = true;\n        betEvent.winningOutcomeIndex = _winningOutcomeIndex;\n\n        address[] memory eventParticipants = participants[_eventId];\n        uint256 totalPool = totalBets[_eventId][_winningOutcomeIndex];\n\n        for (uint256 i = 0; i < eventParticipants.length; i++) {\n            address user = eventParticipants[i];\n            if (selectedOutcome[_eventId][user] == _winningOutcomeIndex) {\n                uint256 reward = (bets[_eventId][user] * totalPool) / totalBets[_eventId][_winningOutcomeIndex];\n                payable(user).transfer(reward);\n            }\n        }\n    }\n\n    function getEvent(uint256 _eventId)\n        public\n        view\n        returns (\n            string memory,\n            string[] memory,\n            bool,\n            bool,\n            uint256\n        )\n    {\n        require(_eventId < events.length, \"Evento invalido.\");\n        Event storage betEvent = events[_eventId];\n        return (\n            betEvent.description,\n            betEvent.outcomes,\n            betEvent.active,\n            betEvent.finalized,\n            betEvent.winningOutcomeIndex\n        );\n    }\n}\n",
  "sourcePath": "/home/leticia/Documentos/uefs/24.2/pbl3/contracts/BettingSystem.sol",
  "compiler": {
    "name": "solc",
    "version": "0.8.13+commit.abaa5c0e.Emscripten.clang"
  },
  "schemaVersion": "3.4.16",
  "updatedAt": "2024-12-01T22:40:02.121Z",
  "networkType": "ethereum",
  "devdoc": {
    "kind": "dev",
    "methods": {},
    "version": 1
  },
  "userdoc": {
    "kind": "user",
    "methods": {},
    "version": 1
  }
}